:100000000C946A010C9487010C9487010C9487016D
:100010000C9487010C9487010C94C4040C94870100
:100020000C9487010C9487010C9487010C94BE05F5
:100030000C9487010C9487010C9491010C94870116
:100040000C9487010C9495040C9487010C948701FF
:100050000C94870100FE82FE0000FE82FE0000FE7E
:1000600082FE0000FE82FE0000FE82FE0000FE8294
:10007000FE0000FE82FE0000FE82FE0000FE82FE08
:100080000000FE82FE0000FE82FE0000FE82FE00F6
:1000900000FE82FE0000FE82FE0000FE82FE0000E6
:1000A000FE82FE0000FE82FE0000FE82FE0000FED8
:1000B00082FE0000FE82FE0000FE82FE0000FE8244
:1000C000FE0000FE82FE0000FE82FE0000FE82FEB8
:1000D0000000FE82FE0000FE82FE0000FE82FE00A6
:1000E00000FE82FE0000FE82FE0000FE82FE000096
:1000F000FE82FE00000000000000003D000000E065
:1001000000E000000000000000000000000000000F
:10011000000000000000000000000000003C4281E0
:10012000000081423C0000000000000000000000D0
:10013000000506000000080808000006060000028E
:10014000040810207C8A92A27C0042FE02004286B3
:100150008A92628482A2D28C182848FE08E4A2A265
:10016000A29C3C5292920C808E90A0C06C92929273
:100170006C609292947800363600000035360000AC
:10018000000000000000000000000000000000204F
:100190004045483000000000007E8888887EFE923E
:1001A00092926C7C82828244FE82824438FE9292D9
:1001B0009282FE909090807C8292925CFE10101051
:1001C000FE0082FE82000C0282FC80FE1028448227
:1001D000FE02020202FE403040FEFE201008FE7CBD
:1001E0008282827CFE909090607C8286827DFE90EE
:1001F000989462649292924C8080FE8080FC02020D
:1002000002FCF8040204F8FC021C02FCC6281028B8
:10021000C6E0100E10E0868A92A2C200FF81810023
:100220000000000000008181FF00000000000000CD
:10023000000000000000000000042A2A2A1EFE22FE
:1002400022221C1C222222121C222222FE1C2A2ACA
:100250002A1A207FA08000192525251EFE20202097
:100260001E0022BE0200020121BE0000FE08142270
:100270000082FE02003E203E201E3E2020201E1C4A
:100280002222221C3F24242418182424243F201E28
:10029000202010122A2A2A24207C2222003C02023A
:1002A000023C38040204383C021C023C22140814AC
:1002B00022380505053E22262A32220E0408102087
:1002C00000FE82FE0000FE82FE0000FE82FE0000B4
:1002D000FE82FE0011241FBECFE5D4E0DEBFCDBFFD
:1002E00010E0A0E6B0E0E2EBFFE002C005900D9266
:1002F000A63AB107D9F712E0A6EAB0E001C01D9214
:10030000AC3CB107E1F70E9452060C94D7070C945D
:10031000000087B1807F876087B986B1886486B91D
:1003200008951F920F920FB60F9211242F933F93AF
:100330004F935F938F939F93EF93FF9334B125B1C6
:10034000922F80E0AC01430F511D9A015093DF01C1
:100350004093DE019F9949C083B382958695869527
:1003600083708095482F417080FF1CC08091DD0113
:100370008823C1F480E38093E20188E38093E30162
:1003800090918400E92FF0E0EE51FE4F80917900CA
:1003900080839F5F9093840081E08093AD008BE722
:1003A000809379004093DD0181E08093AA0053E0BF
:1003B000273635074CF0809179008F5F8093790064
:1003C0008D3778F08CE70BC02436310574F48091BA
:1003D0007900815080937900813218F481E2809312
:1003E00079003093E1012093E001FF91EF919F911B
:1003F0008F915F914F913F912F910F900FBE0F9072
:100400001F90189580538A3028F08151863010F45F
:10041000865F0895089580914201882349F1809173
:10042000C8029091C90201979093C9028093C802B3
:100430008091C8029091C90297FF41C085E090E089
:100440009093C9028093C8028091C6029091C7021E
:1004500001979093C7028093C60297FF30C08091A6
:10046000410190E001979093C7028093C6020895DE
:100470008091C8029091C90201969093C90280931D
:10048000C8028091C8029091C9020697C4F01092E8
:10049000C9021092C8022091C6023091C7022F5F94
:1004A0003F4F3093C7022093C6028091410190E0F4
:1004B0002817390724F01092C7021092C602089537
:1004C000CF93DF936091C6027091C702FB01EE5497
:1004D000FF4F9081E091C802F091C902C091A8003D
:1004E000D091A900EC0FFD1F80914101482F50E0F1
:1004F000415050406417750739F4809142018823B8
:1005000071F420E030E018C06417750744F480915E
:100510004201882321F49B012F5F3F4F13C080913C
:100520004201813019F020E030E003C09B012F5FD1
:100530003F4F6417750731F480914201813011F407
:1005400020E030E0E530F10511F490E037C0E6300E
:10055000F10514F1C530D105FCF4D901AE54BF4FFB
:100560008C91803170F42C9130E0C901880F991F73
:10057000880F991F820F931FE80FF91FE859FD4F4D
:1005800016C08C9125E0829FC0011124E80FF91F4D
:10059000E25BFF4F949112C085E0989FC001112447
:1005A0008031910534F4E259FD4FE80FF91F908135
:1005B00005C0E80FF91FEC5AFF4F94918BB3C65852
:1005C000DF4F8881806E8BBB8091AE00882311F055
:1005D00018BA01C098BBDF91CF910895A091AB00EC
:1005E000B0E0E091790085E0E89FF0011124EA0F86
:1005F000FB1FEC5AFF4FE4918BB3A658BF4F8C9171
:10060000806E8BBBE8BB089580917F00813029F418
:100610001092C9021092C8020AC080917F008230F5
:1006200059F485E090E09093C9028093C80210923B
:10063000C7021092C602089580917F008330C0F0F7
:1006400080917F0090E025E030E0029765E070E067
:100650000E947F07281B390B3093C9022093C802E0
:1006600080917F0090E002979093C7028093C6022A
:100670000895AF92BF92CF92DF92EF92FF920F93C5
:100680001F93CF93DF938C01FC0182810E940202B1
:10069000F82EF80183810E940202F29450EFF522B5
:1006A000F80E580185E0F89E600111248EE692E074
:1006B000C80ED91EC0E0D0E0EF2CFF24E0EAF0E045
:1006C000EE0EFF1EF50184810E940202182F129582
:1006D000107FF50185810E940202180FC7018C0F5F
:1006E0009D1F612F0E94C507F60111936F0121968E
:1006F00082E090E0A80EB91EC530D10519F7DF9150
:10070000CF911F910F91FF90EF90DF90CF90BF900E
:10071000AF9008958AE090E00E94BD07482F809333
:10072000410182EB90E060E170E050E00E94AD0793
:1007300082E090E00E94BD07882341F0813031F0D3
:1007400082E090E060E00E94C50702C08093420111
:1007500084E090E00E94BD07882341F0813031F0B1
:1007600084E090E061E00E94C50702C080938000B1
:1007700086E090E00E94BD078A3040F460918100DD
:100780007091820086E090E00E94D20708950F9356
:100790001F93FC011092830081818633D1F187334E
:1007A00070F4823319F1833320F4813309F069C086
:1007B00019C0833301F1853309F063C021C081344E
:1007C00009F454C0823438F4883309F441C08933C1
:1007D00009F057C041C0823409F44BC0833409F09A
:1007E00050C04BC0CF010E9439034BC00E9404038C
:1007F00082E090E00CC00E94040382E090E032C0EE
:1008000081E080933E018093800084E090E061E08D
:100810002AC010923E01048110E0005D14418281E3
:1008200024E6829FC0011124080F191F83812AE04A
:10083000829FC0011124080F191F0E94040386E043
:1008400090E0B8010E94D20781E080933E0119C078
:10085000CF010E94440413C010923E011092800008
:1008600084E090E060E00E94C50709C00E94040394
:1008700006C081E08093AE0002C01092AE000E94DC
:1008800060021F910F910895EF92FF920F931F93B3
:10089000CF93DF93E62E109283008C0162E0F62E58
:1008A000C0E1D0E007C0CE01F80161810E94C50718
:1008B000F39421960F5F1F4FFE14A8F36E2D625024
:1008C000609341018AE090E00E94C5078AE090E0D1
:1008D0000E94BD07482F8093410182EB90E060E1C8
:1008E00070E050E00E94AD071092A9001092A8009D
:1008F00080E690E062E00E94C7030E94040383E662
:1009000090E065E00E94C70389E690E062E00E9403
:10091000C7038CE690E062E00E94C703DF91CF91AD
:100920001F910F91FF90EF9008951F920F920FB6B5
:100930000F9211242F933F934F935F936F937F9365
:100940008F939F93AF93BF93EF93FF938091830017
:10095000882339F00E94D40680937F000E9404030C
:1009600002C00E947306FF91EF91BF91AF919F91DA
:100970008F917F916F915F914F913F912F910F9048
:100980000FBE0F901F9018951F920F920FB60F92E7
:1009900011241F932F933F934F935F936F937F93F4
:1009A0008F939F93AF93BF93EF93FF9380913F01FA
:1009B000882329F08091C0028F5F8093C0028091CC
:1009C0004301909144010196909344018093430127
:1009D0009F9912C08F55914088F010924401109257
:1009E000430181E08093AA0087B1807F876087B947
:1009F00086B1886486B902C01092AA0083B382953A
:100A0000869587708095182F117080FF2BC080917C
:100A10004501882339F580918400882319F18FE6F8
:100A200090E00E94750790918400E92FF0E0EE516C
:100A3000FE4F86E280839F5F909384009093C5026F
:100A40008AEC92E062EE71E00E94A60710923E01ED
:100A500085EE86BF82EE91E0609184000E94C7031C
:100A600010928400109345018091C002893C48F0A7
:100A70001092C0021092830081E080933E01109298
:100A80003F018091AE00882309F066C082E090E0CB
:100A90000E94BD078093420184E090E00E94BD0760
:100AA000182F809380008091AA00882309F049C004
:100AB0008AE090E00E94BD078093410181508B380D
:100AC00008F04AC0112369F080913E01882349F063
:100AD0008091B0009091B10001969093B100809305
:100AE000B0000E9460028091A8009091A900019638
:100AF0009093A9008093A800059721F41092A90073
:100B00001092A8002091B0003091B1008091810036
:100B10009091820073E0880F991F7A95E1F728176A
:100B20003907D1F486E090E00E94BD0780938100F0
:100B3000109282000E940B021092B1001092B0003D
:100B40000BC00E94EE028091AB008F5F8093AB00E0
:100B5000853011F41092AB00FF91EF91BF91AF91EE
:100B60009F918F917F916F915F914F913F912F91C5
:100B70001F910F900FBE0F901F9018951F920F920C
:100B80000FB60F9211242F933F934F935F936F9360
:100B90007F938F939F93AF93BF93CF93DF93EF9305
:100BA000FF932CB178949091DC012632A9F49093B4
:100BB000C5028AEC92E066E471E00E94A6071092FA
:100BC0003E0185EE86BF86E491E06091DC010E94E3
:100BD000C7031092DC0123C0E92FF0E0EA5BFE4F6F
:100BE000829131968E35B9F4892F81508093DC0142
:100BF000C82FD0E0822F0E940202FE01EA5BFE4F66
:100C00008083319780810E9471078091DC018F5F22
:100C10008093DC0104C020839F5F9093DC01FF91EF
:100C2000EF91DF91CF91BF91AF919F918F917F9184
:100C30006F915F914F913F912F910F900FBE0F9049
:100C40001F9018950E946C061FBC8AE08EBD1DBCCB
:100C50001CBC80E492E09BBD8ABD80E189BF1BBAC9
:100C60008FE18ABB18BA8FEF87BB14BA85B38F6048
:100C700085BB8BE081BB12BA67E170E080E090E059
:100C80000E9460073E9A86B18E6886B987B1807FE0
:100C9000876087B986B1886486B985B78F748061AB
:100CA00085BF08950E942206AB98939880E29EE447
:100CB00028EC30E0F9013197F1F70197D9F70E945C
:100CC0008A039B9B02C085EE01C085EC86BF81E054
:100CD00080933F017894FFCF81E082B98AE080B9A8
:100CE00085EC86BF089581B1887F883221F18932F1
:100CF00070F48031F1F0813120F4883009F051C076
:100D000014C08831A1F0803209F04BC012C0803786
:100D100009F447C0813720F4803309F042C009C08C
:100D2000803909F1803AE9F52BC01092C30213B85B
:100D300038C085EE37C09091C3028091C5029817E4
:100D400068F4E091C302F0E0E653FD4F808183B97F
:100D50008091C3028F5F8093C30223C081E08093A0
:100D60003E0185ED1FC0E091C402F0E083B1E6537F
:100D7000FD4F80838091C4028F5F8093C40211C0B5
:100D80008091C40281508093C40281E080933E012F
:100D90006091C4028BEC92E070E00E94C703109255
:100DA000C40285EC86BF08959B9B03C081E08093BD
:100DB000C10281B1887F883241F1893278F4803173
:100DC00009F44FC0813120F4883009F04CC013C0C1
:100DD0008831B1F0803209F046C043C0803709F451
:100DE00042C0813718F48033F1F53BC08039B9F047
:100DF000803AC9F52CC081E080933F0113B833C01D
:100E0000939A8091A40083B92EC08091BF028F5F16
:100E10008093BF0285ED86BF1092C00226C08091EC
:100E2000C102813049F48091BF02882329F483B143
:100E30008F5F8093A40008C09091BE0283B1981781
:100E400018F483B18093BE021092C0020CC080914E
:100E5000C102813041F48091BF02882321F41092B5
:100E6000C00285EE01C085EC86BF9091BE028091E4
:100E7000A400891720F08091A4008093BE0285E829
:100E800090E00E9475078091A400805D0E94710728
:100E90008DE00E9471078AE00E94710784E990E06A
:100EA0000E9475078091BE02805D0E9471078DE0EF
:100EB0000E9471078AE00E9471078091A400089542
:100EC00086E880BD1BB888E98AB987E189B910BC7A
:100ED00008955F9BFECF8CB108955D9BFECF8CB9CA
:100EE00008955D9BFECF8CB90895FC0104C05D9B05
:100EF000FECF31968CB980818823C9F7089597FB7E
:100F0000092E07260AD077FD04D00CD006D0002089
:100F10001AF4709561957F4F0895F6F79095819535
:100F20009F4F0895AA1BBB1B51E107C0AA1FBB1FFF
:100F3000A617B70710F0A61BB70B881F991F5A9565
:100F4000A9F780959095BC01CD010895FB01DC01C6
:100F500001900D920020E1F70895DC01CB01FC0126
:100F6000E199FECF06C0FFBBEEBBE09A31960DB211
:100F70000D9241505040B8F70895E199FECF9FBBC4
:100F80008EBBE09A99278DB30895262FE199FECF65
:100F90009FBB8EBB2DBB0FB6F894E29AE19A0FBEB1
:100FA000019608950E94C507272F0C94C607F89450
:020FB000FFCF71
:100FB20030390030363031300030410030350053A6
:100FC200656E64696E673A0001211008040201012E
:100FD200010A0001026D79206164647265737320F5
:100FE200697320006D617820616464726573732097
:060FF200697320000100FC
:00000001FF
